:020000040800F2
:10200000005000205B2D0008552D0008552D0008BC
:10201000552D0008552D0008552D00080000000022
:10202000000000000000000000000000552D000826
:10203000552D000800000000552D0008552D000802
:10204000552D0008552D0008552D0008552D000868
:1020500000000000552D0008552D0008552D0008E2
:10206000552D0008552D0008552D0008552D000848
:10207000552D0008552D0008552D0008552D000838
:10208000552D0008552D0008552D0008552D000828
:10209000552D0008552D0008552D0008552D000818
:1020A000552D0008552D0008552D0008552D000808
:1020B000552D0008552D0008552D0008552D0008F8
:1020C000552D0008552D0008552D0008552D0008E8
:1020D000552D0008552D0008552D0008552D0008D8
:1020E000552D0008552D0008552D0008552D0008C8
:1020F000552D0008552D0008552D0008552D0008B8
:10210000552D0008552D0008552D0008552D0008A7
:10211000552D0008552D0008552D0008552D000897
:10212000552D0008552D0008552D0008552D000887
:10213000552D0008552D0008552D0008552D000877
:10214000552D0008552D0008552D0008552D000867
:10215000552D0008552D0008552D0008552D000857
:10216000552D0008552D0008552D0008552D000847
:10217000552D0008552D0008552D0008552D000837
:10218000552D0008552D000880B500AF0121002015
:0821900000F0EAF900BF80BD78
:1021980080B483B000AF03460A46FB711346BB7197
:1021A800BB791F2B2AD8FB79022B1CD0022B25DCEC
:1021B800002B02D0012B0BD020E0134B1B68BA79FF
:1021C800012101FA02F211460F4A0B43136015E090
:1021D8000E4B1B68BA79012101FA02F211460B4A2B
:1021E8000B4313600AE00A4B1B68BA79012101FA14
:1021F80002F21146064A0B43136000BF00BF0C37BA
:10220800BD4680BC704700BF141002401C1002403D
:102218001810024080B483B000AF03460A46FB7131
:102228001346BB71BB791F2B2DD8FB79022B1ED00F
:10223800022B28DC002B02D0012B0CD023E0144BFE
:102248001B68BA79012101FA02F2D2431146104AF9
:102258000B40136017E00F4B1B68BA79012101FA94
:1022680002F2D24311460B4A0B4013600BE00A4BB3
:102278001B68BA79012101FA02F2D2431146064AD3
:102288000B40136000BF00BF0C37BD4680BC7047D1
:10229800141002401C1002401810024080B400AF15
:1022A800114B80221A60114B00221A600E4B1B68DA
:1022B8000D4A43F4002313600B4B1B680A4A43F48E
:1022C8008033136000BF084B1B685B0C03F00103ED
:1022D800002BF8D0054B1B68044A43F00103136038
:1022E80000BFBD4680BC7047001002400410024089
:1022F80080B400AF034B034A1B68136000BFBD46A0
:1023080080BC70470410024080B400AF034B034AFE
:102318001B68136000BFBD4680BC704704100240B4
:1023280080B400AF034B034A1B68136000BFBD466F
:1023380080BC70470410024080B400AF034B034ACE
:102348001B68136000BFBD4680BC70470410024084
:1023580080B400AF034B034A1B68136000BFBD463F
:1023680080BC70470410024080B485B000AF0346BB
:102378000A46FB711346BB71FB790F2B02D8724BCF
:10238800FB6016E0FB790F2B08D9FB791F2B05D8CA
:102398006E4BFB60FB79103BFB710AE0FB791F2B4E
:1023A80007D9FB792F2B04D8694BFB60FB79203BBD
:1023B800FB71FB68664A934200F08180FB68644ABF
:1023C800934200F2B580FB685F4A934204D0FB68F1
:1023D8005E4A93423AD0ABE0FB79072B17D85A4BA9
:1023E8001B68FA7992000F2101FA02F2D2431146D2
:1023F800554A0B401360544B1B68B979FA7992001F
:1024080001FA02F21146504A0B43136092E0FB793D
:102418000F2B00F28F80FB79083BFB714D4B1B683B
:10242800FA7992000F2101FA02F2D2431146494A81
:102438000B401360474B1B68B979FA79920001FA8F
:1024480002F21146434A0B43136073E0FB79072BF2
:1024580017D83E4B1B68FA7992000F2101FA02F255
:10246800D2431146394A0B401360384B1B68B9797F
:10247800FA79920001FA02F21146344A0B431360CA
:102488005AE0FB790F2B57D8FB79083BFB71324B8D
:102498001B68FA7992000F2101FA02F2D243114621
:1024A8002D4A0B4013602C4B1B68B979FA799200BE
:1024B80001FA02F21146284A0B4313603CE0FB790B
:1024C800072B17D8224B1B68FA7992000F2101FAC3
:1024D80002F2D24311461E4A0B4013601C4B1B6884
:1024E800B979FA79920001FA02F21146184A0B43B7
:1024F800136023E0FB790F2B20D8FB79083BFB7195
:10250800164B1B68FA7992000F2101FA02F2D243A6
:102518001146124A0B401360104B1B68B979FA79BF
:10252800920001FA02F211460C4A0B43136005E0CF
:1025380000BF04E000BF02E000BF00E000BF00BF32
:102548001437BD4680BC704700080140000C0140AC
:102558000010014004080140040C0140041001402F
:1025680080B485B000AF03460A46FB711346BB71C1
:10257800FB790F2B02D8364BFB6016E0FB790F2B4B
:1025880008D9FB791F2B05D8324BFB60FB79103B30
:10259800FB710AE0FB791F2B07D9FB792F2B04D895
:1025A8002D4BFB60FB79203BFB71FB790F2B4AD845
:1025B800FB68294A934232D0FB68274A934241D8A4
:1025C800FB68234A934204D0FB68224A934213D003
:1025D80038E0BB79002B02D0012B06D033E0FB7921
:1025E80001229A401D4B1A6005E0FB7901229A40AE
:1025F8001B4B1A6000BF26E0BB79002B02D0012BD1
:1026080006D020E0FB7901229A40164B1A6005E0BB
:10261800FB7901229A40144B1A6000BF13E0BB7982
:10262800002B02D0012B06D00DE0FB7901229A4045
:102638000E4B1A6005E0FB7901229A400C4B1A6098
:1026480000BF00E000BF00BF1437BD4680BC704724
:1026580000080140000C014000100140140801402E
:1026680010080140140C0140100C014014100140E6
:102678001010014080B485B000AF0346FB71002301
:10268800FB73FB790F2B02D8294BBB6016E0FB7953
:102698000F2B08D9FB791F2B05D8264BBB60FB797C
:1026A800103BFB710AE0FB791F2B07D9FB792F2B15
:1026B80004D8214BBB60FB79203BFB71FB790F2BC6
:1026C8002FD8BB681C4A934220D0BB681A4A934251
:1026D80026D8BB68164A934204D0BB68154A934271
:1026E8000AD01DE0154B1A68FB7922FA03F3DBB216
:1026F80003F00103FB7314E0114B1A68FB7922FA0B
:1027080003F3DBB203F00103FB730AE00D4B1A6815
:10271800FB7922FA03F3DBB203F00103FB7300E059
:1027280000BFFB7B18461437BD4680BC704700BF0E
:1027380000080140000C0140001001400808014059
:10274800080C01400810014080B485B000AF034672
:102758000A46FB711346BB71FB790F2B02D8474B16
:10276800FB6016E0FB790F2B08D9FB791F2B05D8E6
:10277800434BFB60FB79103BFB710AE0FB791F2B95
:1027880007D9FB792F2B04D83E4BFB60FB79203B04
:10279800FB71FB790F2B6BD8FB683A4A934248D000
:1027A800FB68384A934262D8FB68344A934204D0A3
:1027B800FB68334A93421ED059E0BB79002B02D004
:1027C800012B0CD016E0304B1B68FA79012101FA75
:1027D80002F2D24311462C4A0B4013600AE02A4BFE
:1027E8001B68FA79012101FA02F21146264A0B43C5
:1027F800136000BF3CE0BB79002B02D0012B0CD04A
:1028080016E0224B1B68FA79012101FA02F2D24341
:1028180011461E4A0B4013600AE01C4B1B68FA79EC
:10282800012101FA02F21146184A0B43136000BF56
:102838001EE0BB79002B02D0012B0CD016E0144B04
:102848001B68FA79012101FA02F2D2431146104AB3
:102858000B4013600AE00E4B1B68FA79012101FA5C
:1028680002F211460A4A0B43136000BF00E000BFA2
:1028780000BF18461437BD4680BC704700080140A9
:10288800000C0140001001400C0801400C0C0140F4
:102898000C10014080B485B000AF0346FB71FB7992
:1028A8000F2B02D82A4BFB6016E0FB790F2B08D9B7
:1028B800FB791F2B05D8274BFB60FB79103BFB717D
:1028C8000AE0FB791F2B07D9FB792F2B04D8224B61
:1028D800FB60FB79203BFB71FB790F2B32D8FB683F
:1028E8001D4A934222D0FB681B4A934229D8FB68B1
:1028F800174A934204D0FB68164A93420BD020E053
:10290800164B1B68FA79012101FA02F21146134AA3
:102918004B40136016E0124B1B68FA79012101FA4B
:1029280002F211460E4A4B4013600BE00D4B1B6838
:10293800FA79012101FA02F211460A4A4B40136062
:1029480000E000BF00BF1437BD4680BC704700BF21
:1029580000080140000C0140001001400C08014033
:102968000C0C01400C10014080B584B000AF034648
:10297800FB710B46BB7113467B71FB79FB7308E057
:102988007A79FB7B11461846FFF7EEFCFB7B013397
:10299800FB73FA7BBB799A42F2D900BF00BF1037AC
:1029A800BD4680BD80B483B000AF78600B467B80A5
:1029B8007B68154A93421AD07B68134A93421DD804
:1029C8007B68124A934204D07B68114A934207D02D
:1029D80014E0104B1A687B880E4913430B600EE015
:1029E8000D4B1A687B880C4913430B6007E00B4BAF
:1029F8001A687B88094913430B6000E000BF00BFD9
:102A08000C37BD4680BC70470010014000080140EB
:102A1800000C01400C0801400C0C01400C10014056
:102A280080B483B000AF786039607B68104A934205
:102A380014D07B680E4A934214D87B680D4A93429F
:102A480004D07B680C4A934204D00BE00B4A3B68E5
:102A5800136008E00A4A3B68136004E0094A3B68CF
:102A6800136000E000BF00BF0C37BD4680BC704754
:102A78000010014000080140000C0140100801400E
:102A8800100C01401010014080B483B000AF786092
:102A98000B467B807B68104A934213D07B680E4AB2
:102AA800934213D87B680D4A934204D07B680C4A42
:102AB800934203D00AE00B4A7B8813600A4A7B885A
:102AC800136004E0094A7B88136000E000BF00BF80
:102AD8000C37BD4680BC704700100140000801401B
:102AE800000C014010080140100C0140101001407A
:102AF80080B483B000AF78600B467B807B68104A57
:102B0800934213D07B680E4A934213D87B680D4AD0
:102B1800934204D07B680C4A934203D00AE00B4AE4
:102B28007B8813600A4A7B88136004E0094A7B8823
:102B3800136000E000BF00BF0C37BD4680BC704783
:102B48000010014000080140000C01401408014039
:102B5800140C01401410014080B485B000AF034646
:102B6800FB710023FB720023BB72FB790F2B02D889
:102B7800704BFB6016E0FB790F2B08D9FB791F2BF4
:102B880005D86D4BFB60FB79103BFB710AE0FB79C4
:102B98001F2B07D9FB792F2B04D8684BFB60FB79D7
:102BA800203BFB71FB68654A934200F08180FB681B
:102BB800624A934200F2B680FB685E4A934204D0B0
:102BC800FB685D4A934239D0ACE05D4B1B685C4AB8
:102BD80023F4803313605A4B1B68FA79012101FAF8
:102BE80002F21146564A0B431360554B1B68544A70
:102BF80043F480331360524B1B68514A23F48033EB
:102C080013604F4B1B684E4A43F4803313604C4BA0
:102C18001B681B0CDBB203F00103BB72484B1B683B
:102C28001B0CDBB203F00103BB72454B1A68FB793E
:102C380022FA03F3DBB203F00103FB72414B1B687A
:102C4800404A23F4803313603E4B1B68FA79012114
:102C580001FA02F211463B4A0B431360394B1B68D9
:102C6800384A43F480331360364B1B68354A23F4E3
:102C780080331360334B1B68324A43F4803313604C
:102C8800304B1B681B0CDBB203F00103BB722D4BEE
:102C98001B681B0CDBB203F00103BB72294B1A68DB
:102CA800FB7922FA03F3DBB203F00103FB723AE08B
:102CB800254B1B68244A23F480331360224B1B687E
:102CC800FA79012101FA02F211461F4A0B431360F7
:102CD8001D4B1B681C4A43F4803313601A4B1B6856
:102CE800194A23F480331360174B1B68164A43F4C0
:102CF80080331360144B1B681B0CDBB203F0010319
:102D0800BB72114B1B681B0CDBB203F00103BB72D7
:102D18000D4B1A68FB7922FA03F3DBB203F00103C7
:102D2800FB7200E000BFFB7A18461437BD4680BC32
:102D3800704700BF00080140000C0140001001402E
:102D480018080140180C01401810014080B400AF69
:102D5800FEE780B588B000AF1A4A1B4BD31ABB6098
:102D6800194BFB61194BBB61194A1A4BD31A7B608B
:102D7800184B7B6100233B610AE0BA69531CBB61B5
:102D8800FB69591CF96112781A703B6901333B6180
:102D98003A69BB689A42F0D30023FB6007E07B697D
:102DA8005A1C7A6100221A70FB680133FB60FA68CA
:102DB8007B689A42F3D300F00FF800BF2037BD4676
:102DC80080BD00BF0000002000000020002E000889
:102DD800000000200000002080B500AFFFF75EFA79
:102DE80002210220FFF7D4F901210020FFF7BCFAE5
:082DF800FFF7C6F9FCE700003B
:0400000508002D5B67
:00000001FF
